:1000000004308A00962C00008A068A0623104D3997
:10001000E135EF366539A0127310A8212910321886
:10002000B01B2D19B0183010CB204B268A060000CB
:10003000231068102010A016A029F734F43168109E
:100040004F372024E530F434EE3320336F39201954
:10005000B0392E050D00231066102010A0162023A5
:10006000F232653D69376717A029F734F43168101B
:100070004F336610C832613A693767178A06000144
:10008000231069102010A0162028F2346E3A203A6E
:10009000E83473104937E637F236613AE9376E17BC
:1000A0008A06000123103017AE1CA016A02969375C
:1000B00067366510ED32E13975396510613AA03364
:1000C000693B6537A030EE33EC322E050D0023106E
:1000D0006D102010A016A026E530F33AF232A030C1
:1000E00074107434F23265107338E1316510F037F2
:1000F0006937F4392E050D00241E41376736651F18
:10010000201EC136E23465377410D4326D3865393B
:10011000613A7539651F201E5338E1316510D432BC
:100120006D386539613A7539651F20172E17201E05
:10013000481F201EC832613A6937671F00018A06CE
:100140008A06000033308400831300080319B528A1
:100150000230F800F701F70BAB28F80BAA2897300C
:10016000F700F70BB128800BA82808006508E70006
:100170006408E6006708FA006608840083137A18AA
:10018000831780080319C828E60A0319E70ABA2862
:1001900064086602F7006708FA006508031C650F2B
:1001A000FA027708F8000800831603178C170C145E
:1001B000000000000318042983120C087F39031380
:1001C000E50003170D080313E60003170F080313D8
:1001D000E70065080C1EEA289900660803178D00E1
:1001E0000313670803178F0083168C170C14000085
:1001F000000083120313E40BFE2801298316031762
:10020000042924298316031783120C0D0E0D7F3940
:100210000313E50003170D080313E60003170F0887
:100220000313E70065080C1E1329990066080317DD
:100230008D000313670803178F008D0A03198F0AB7
:1002400003100313E40BD4280800800803193B298A
:10025000E5010408E4006510831B651400080C1E0A
:100260002F29990064088400831365188317840A72
:100270000319850A25290800831603178C170C1407
:100280000000000083120C087F3903198229031330
:10029000E40003170D080313E50003170F08031309
:1002A000E60064080C1E52299900650803178D00AA
:1002B0000313660803178F0083168C170C140000B5
:1002C000000083120C0D0E0D7F39031982290313D0
:1002D000E40003170D080313E50003170F080313C9
:1002E000E60064080C1E72299900650803178D004A
:1002F0000313660803178F008D0A03198F0A03136F
:100300003C290317031308002430B2004930B3001E
:100310006430B4003A30B5002030B6006930B70020
:100320007230B8006D30B9007230BA006130BB0075
:100330006B30BC003430BD002E30BE006330BF00D7
:100340002030C0003130C1003530C2003830C30029
:100350003630C4002030C5003230C6003030C7000F
:100360003130C8003030C9002D30CA003030CB00E9
:100370003830CC002D30CD003230CE00CF002030D0
:10038000D0003030D1003830D2003A30D300333092
:10039000D4003530D5003A30D6003330D700D800FD
:1003A0005A30D9002030DA006B30DB006130DC00DD
:1003B0006B30DD006C30DE002030DF002430E000E8
:1003C000E101E5013230E400B62001307802323E2E
:1003D000840083130008243C031DF829E501323012
:1003E000E400B62001307802323E8400831380019D
:1003F000043003178D0000308F0003100F300313FB
:10040000E400D42022308400831325210C3003170C
:100410008D0000308F00031415300313E400D42046
:1004200023300C1E112A99003630840083132521B5
:100430000A300C1E192A99000D300C1E1D2A990035
:1004400023300C1E212A99000A300C1E252A9900FF
:100450000D300C1E292A9900183003178D0000302A
:100460008F0003133C212B3003178D0000308F00C9
:1004700003133C21403003178D0000308F0003131D
:100480003C21523003178D0000308F0003133C21B4
:10049000673003178D0000308F0003133C21233099
:1004A0000C1E502A99000A300C1E542A99000D3057
:1004B0000C1E582A99007C3003178D0000308F00E5
:1004C00003133C219F3003178D0000308F0003136E
:1004D0003C2164000800831686140612831206125B
:1004E0000D30F700F70B722A8316861083128610E0
:1004F0000D30F700F70B7A2A831606160D30F70039
:10050000F70B802A861483120800831686140D3098
:10051000F700F70B892A06160D30F700F70B8E2A25
:100520008610831286100D30F700F70B952A83167C
:100530000612831206120D30F700F70B9D2A0800F1
:10054000C208031DA82A8316861083128610AB2AC0
:10055000831686148312AC2AAD2AAE2A8316061699
:100560001A30F700F70BB22A0000061283120612A7
:10057000B92A4230F700F70BBB2A0000BF2A080057
:100580008316861406161A30F700F70BC52A0000EA
:1005900086148312861CCF2A0130C200D02AC201E1
:1005A0008316061283120612D52A4230F700F70B83
:1005B000D72A0000DB2A4208F80008000830BF00F4
:1005C000BF080319F02ABE1FE82A0130C100E92A3A
:1005D000C1014108C200A0220310BE0DBF03E02AE2
:1005E000C0227808C0004008F80008000830BF00AA
:1005F000BF080319082BC022F8080319032B0310A6
:10060000BE0D3E14062B0310BE0D3E10BF03F82A8C
:100610003D08C200A0223E08F80008000310B20DF9
:100620006B2285223208BE00DE223308BD00BE00E8
:10063000DE2285223208BE00DE22BD01F6227808C5
:10064000B600BD01F6227808B5003508BC003608B2
:10065000BB000130BD00F6227808BA006B223208D8
:10066000B9003308B8003208B700B401BE01343015
:10067000BD002F30C500C401C301C201C10101305A
:10068000C0000730BF002F30C500C6010530C700CD
:10069000C80147083D07840083133E1883170008EC
:1006A000CA008030F7004808F80003195B2B0310DC
:1006B000F70CF80B572B77084A05031D6D2BC7085D
:1006C00003196D2BC5034808063C031C692BC80A97
:1006D0006B2BC801C7036C2B492B08304502C600A1
:1006E000C6080319992B0530C700470F782B962BA6
:1006F000013047023F3E84008313801F852BC708CB
:100700000319852B0130C900862BC9013F304707EB
:10071000840083130310000D80003F3047078400DE
:100720008313490800078000C703752BC603982B65
:10073000702BC7014708053C031CBC2B47083D072D
:10074000F8003E08FA000318FA0A780884008313B8
:100750007A1883170008CC003F30470784008313C2
:1007600000084C06CC007808840083137A1883179D
:100770004C088000C70A9A2B4508083C031C3B2BF9
:100780003D08840083133E1883170008F80078089A
:100790003A020319CD2BBC01BB013B08F8003C0811
:1007A000F9000800BA010408B9003A10831B3A1492
:1007B000B31FE22BB917391EB90AB209B309B20A3D
:1007C0000319B30A330EF038B500B507E23EB600A0
:1007D000323EB80033080F39B607B607B807E93E0E
:1007E000B700B707B707320E0F39B707B807B70D0D
:1007F000B80DB809B80D32080F39B807B50D073074
:10080000B4000A30B807B703031C022CB707B603BD
:10081000031C062CB607B503031C0A2CB507B4034A
:10082000031C0E2C34308400831307303905391330
:1008300084033905031D232C391A840A391A232C01
:100840002030F700402C8407383004020319391790
:100850000008F700031D342C391B342C391A442CA2
:10086000B919342C20303F2CB91F3C2C2D30F70007
:1008700084033913B913402CB91539123030F707F6
:1008800077080C1E412C9900840A391F242C08007B
:100890003508F80134020318502C3408F7005C2C9A
:1008A000F7010830B600B40DF70D350877020318CC
:1008B000F700F80DB60B532C080078083208B40086
:1008C0006430B50048247708B20078083030031D42
:1008D000702CB31C782CB319782C331A2030732C5D
:1008E000B31133123314F80778080C1E752C9900D5
:1008F0003208B4000A30B50048247708B2007808FE
:100900003030031D892CB3198E2C331C8E2C331AD6
:100910002030F80778080C1E8B2C99003030B20775
:1009200032080C1E912C99008A11682D84018313C2
:100930001F308305723083168F000F083330990003
:10094000A230980090308312980083161F129F12D5
:100950001B0880399B0007309C008312A001A10175
:100960003230A2002E30A3003230A400A50183163D
:100970000511831205110230B200FA30B300A22033
:10098000B20BBD2C6400A601A801A7018421B2010D
:100990000630B3000E237908AC007808AB00B20132
:1009A0000730B3000E237908AA007808A9000230A6
:1009B000B200FA30B300A220B20BD92C64008C1E16
:1009C000702D8C1EE12C1A08B10018121816B201F5
:1009D0000630B3000E237908AC007808AB00B201F2
:1009E0000730B3000E237908AA007808A900031085
:1009F0002B0DB2002C0DB300B3303202F7003308D8
:100A0000FA006A30031C6B30FA027708AD007A08EE
:100A1000AE000310290DB2002A0DB300B33032022C
:100A2000F7003308FA006A30031C6B30FA027708CB
:100A3000AF007A08B0003108483A0319262D0E3A63
:100A40000319292D0F3A03192B2D2D2D1430A60033
:100A50002D2DA6012D2D84212D2D31080C1E2E2D7E
:100A6000990020300C1E322D9900103084002E0881
:100A7000B3002D08B200D22320300C1E3D2D99006A
:100A8000103084003008B3002F08B200D223203089
:100A90000C1E482D99003108413C0319702D310876
:100AA000423C0319702D3108433C0319702D310865
:100AB000533C0319702D48300C1E5C2D99002030DA
:100AC0000C1E602D99002608B2001B30B3005D2C6F
:100AD0000D300C1E692D99000A300C1E6D2D9900E9
:100AE0000130B300A220A708031D792DA80803191F
:100AF0007E2D27080319A803A703822D0330A80021
:100B0000E830A700A6080319922D2708E83C031D2A
:100B10008D2D2808033C0319A603831605118312A3
:100B20000515962D8316051183120511DE2C630021
:04400E00103FFC3F24
:00000001FF
;PIC16F88
;CRC=2F51  CREATED="22-VIII-10 10:36"
