:1000000004308A00972C00008A068A0623104D3996
:10001000E135EF366539A0127310A8212910321886
:10002000B01B2D19B0183010CB204B268A060000CB
:10003000231068102010A016A029F734F43168109E
:100040004F372024E530F434EE3320336F39201954
:10005000B0392E050D00231066102010A0162023A5
:10006000F232653D69376717A029F734F43168101B
:100070004F336610C832613A693767178A06000144
:10008000231069102010A0162028F2346E3A203A6E
:10009000E83473104937E637F236613AE9376E17BC
:1000A0008A06000123103017AE1CA016A02969375C
:1000B00067366510ED32E13975396510613AA03364
:1000C000693B6537A030EE33EC322E050D0023106E
:1000D0006D102010A016A026E530F33AF232A030C1
:1000E00074107434F23265107338E1316510F037F2
:1000F0006937F4392E050D00241E41376736651F18
:10010000201EC136E23465377410D4326D3865393B
:10011000613A7539651F201E5338E1316510D432BC
:100120006D386539613A7539651F20172E17201E05
:10013000481F201EC832613A6937671F00018A06CE
:100140008A06000033308400831300080319B528A1
:100150000230F800F701F70BAB28F80BAA2897300C
:10016000F700F70BB128800BA82808006508E70006
:100170006408E6006708FA006608840083137A18AA
:10018000831780080319C828E60A0319E70ABA2862
:1001900064086602F7006708FA006508031C650F2B
:1001A000FA027708F8000800831603178C170C145E
:1001B000000000000318042983120C087F39031380
:1001C000E50003170D080313E60003170F080313D8
:1001D000E70065080C1EEA289900660803178D00E1
:1001E0000313670803178F0083168C170C14000085
:1001F000000083120313E40BFE2801298316031762
:10020000042924298316031783120C0D0E0D7F3940
:100210000313E50003170D080313E60003170F0887
:100220000313E70065080C1E1329990066080317DD
:100230008D000313670803178F008D0A03198F0AB7
:1002400003100313E40BD4280800800803193B298A
:10025000E5010408E4006510831B651400080C1E0A
:100260002F29990064088400831365188317840A72
:100270000319850A25290800831603178C170C1407
:100280000000000083120C087F3903198229031330
:10029000E40003170D080313E50003170F08031309
:1002A000E60064080C1E52299900650803178D00AA
:1002B0000313660803178F0083168C170C140000B5
:1002C000000083120C0D0E0D7F39031982290313D0
:1002D000E40003170D080313E50003170F080313C9
:1002E000E60064080C1E72299900650803178D004A
:1002F0000313660803178F008D0A03198F0A03136F
:100300003C290317031308002430B2004930B3001E
:100310006430B4003A30B5002030B6006930B70020
:100320007230B8006D30B9007230BA006130BB0075
:100330006B30BC003430BD002E30BE006330BF00D7
:100340002030C0003130C1003330C2003030C30033
:100350003630C4002030C5003230C6003030C7000F
:10036000C8003930C9002D30CA003030CB003130E0
:10037000CC002D30CD003130CE003730CF002030D2
:10038000D0003130D1003230D2003A30D300323098
:10039000D4003530D5003A30D6003430D700303074
:1003A000D8005A30D9002030DA006B30DB006130E1
:1003B000DC006B30DD006C30DE002030DF002430EC
:1003C000E000E101E5013230E400B62001307802BE
:1003D000323E840083130008243C031DF929E50103
:1003E0003230E400B62001307802323E84008313BC
:1003F0008001043003178D0000308F0003100F3090
:100400000313E400D42022308400831325210C3010
:1004100003178D0000308F00031415300313E40020
:10042000D42023300C1E122A990036308400831306
:1004300025210A300C1E1A2A99000D300C1E1E2A86
:10044000990023300C1E222A99000A300C1E262AFD
:1004500099000D300C1E2A2A9900183003178D00C0
:1004600000308F0003133C212B3003178D00003028
:100470008F0003133C21403003178D0000308F00A4
:1004800003133C21523003178D0000308F000313FB
:100490003C21673003178D0000308F0003133C218F
:1004A00023300C1E512A99000A300C1E552A99003F
:1004B0000D300C1E592A99007C3003178D00003036
:1004C0008F0003133C219F3003178D0000308F00F5
:1004D00003133C216400080083168614061283125D
:1004E00006120D30F700F70B732A8316861083125D
:1004F00086100D30F700F70B7B2A831606160D3099
:10050000F700F70B812A86148312080083168614DD
:100510000D30F700F70B8A2A06160D30F700F70B9F
:100520008F2A8610831286100D30F700F70B962A5B
:1005300083160612831206120D30F700F70B9E2A5F
:100540000800C208031DA92A83168610831286108C
:10055000AC2A831686148312AD2AAE2AAF2A8316DC
:1005600006161A30F700F70BB32A000006128312A2
:100570000612BA2A4230F700F70BBC2A0000C02A44
:1005800008008316861406161A30F700F70BC62AE1
:10059000000086148312861CD02A0130C200D12AA2
:1005A000C2018316061283120612D62A4230F700C1
:1005B000F70BD82A0000DC2A4208F80008000830AF
:1005C000BF00BF080319F12ABE1FE92A0130C1008C
:1005D000EA2AC1014108C200A1220310BE0DBF03D7
:1005E000E12AC1227808C0004008F800080008305D
:1005F000BF00BF080319092BC122F8080319042BF7
:100600000310BE0D3E14072B0310BE0D3E10BF039A
:10061000F92A3D08C200A1223E08F8000800031094
:10062000B20D6C2286223208BE00DF223308BD00E4
:10063000BE00DF2286223208BE00DF22BD01F72283
:100640007808B600BD01F7227808B5003508BC006F
:100650003608BB000130BD00F7227808BA006C22D2
:100660003208B9003308B8003208B700B401BE013F
:100670003430BD002F30C500C401C301C201C10127
:100680000130C0000730BF002F30C500C601053063
:10069000C700C80147083D07840083133E1883172D
:1006A0000008CA008030F7004808F80003195C2BE6
:1006B0000310F70CF80B582B77084A05031D6E2B17
:1006C000C70803196E2BC5034808063C031C6A2B98
:1006D000C80A6C2BC801C7036D2B4A2B0830450292
:1006E000C600C60803199A2B0530C700470F792B9F
:1006F000972B013047023F3E84008313801F862BD7
:10070000C7080319862B0130C900872BC9013F3068
:100710004707840083130310000D80003F30470714
:1007200084008313490800078000C703762BC603A3
:10073000992B712BC7014708053C031CBD2B4708AB
:100740003D07F8003E08FA000318FA0A780884000A
:1007500083137A1883170008CC003F3047078400C2
:10076000831300084C06CC007808840083137A18A1
:1007700083174C088000C70A9B2B4508083C031CC4
:100780003C2B3D08840083133E1883170008F800B3
:1007900078083A020319CE2BBC01BB013B08F800D4
:1007A0003C08F9000800BA010408B9003A10831B9C
:1007B0003A14B31FE32BB917391EB90AB209B309AA
:1007C000B20A0319B30A330EF038B500B507E23E9A
:1007D000B600323EB80033080F39B607B607B8077F
:1007E000E93EB700B707B707320E0F39B707B807AA
:1007F000B70DB80DB809B80D32080F39B807B50DE7
:100800000730B4000A30B807B703031C032CB7073E
:10081000B603031C072CB607B503031C0B2CB50746
:10082000B403031C0F2C34308400831307303905C4
:10083000391384033905031D242C391A840A391A03
:10084000242C2030F700412C84073830040203198F
:1008500039170008F700031D352C391B352C391AC0
:10086000452CB919352C2030402CB91F3D2C2D308A
:10087000F70084033913B913412CB91539123030FC
:10088000F70777080C1E422C9900840A391F252C83
:1008900008003508F80134020318512C3408F70019
:1008A0005D2CF7010830B600B40DF70D350877025E
:1008B0000318F700F80DB60B542C0800780832081E
:1008C000B4006430B50049247708B20078083030AD
:1008D000031D712CB31C792CB319792C331A2030D9
:1008E000742CB31133123314F80778080C1E762CCD
:1008F00099003208B4000A30B50049247708B200E4
:1009000078083030031D8A2CB3198F2C331C8F2CA0
:10091000331A2030F80778080C1E8C2C99003030E0
:10092000B20732080C1E922C99008A11692D84019D
:1009300083131F308305723083168F000F08333006
:100940009900A230980090308312980083161F12ED
:100950009F121B0880399B0007309C008312A00166
:10096000A1013230A2002E30A3003230A400A50134
:1009700083160511831205110230B200FA30B3005C
:10098000A220B20BBE2C6400A601A801A7018421FD
:10099000B2010630B3000F237908AC007808AB0031
:1009A000B2010730B3000F237908AA007808A90024
:1009B0000230B200FA30B300A220B20BDA2C64008D
:1009C0008C1E712D8C1EE22C1A08B10018121816FC
:1009D000B2010630B3000F237908AC007808AB00F1
:1009E000B2010730B3000F237908AA007808A900E4
:1009F00003102B0DB2002C0DB300B3303202F70000
:100A00003308FA006A30031C6B30FA027708AD0035
:100A10007A08AE000310290DB2002A0DB300B330DE
:100A20003202F7003308FA006A30031C6B30FA0216
:100A30007708AF007A08B0003108483A0319272D2B
:100A40000E3A03192A2D0F3A03192C2D2E2D14308E
:100A5000A6002E2DA6012E2D84212E2D31080C1E30
:100A60002F2D990020300C1E332D9900103084005A
:100A70002E08B3002D08B200D32320300C1E3E2DCB
:100A80009900103084003008B3002F08B200D3233F
:100A900020300C1E492D99003108413C0319712D5D
:100AA0003108423C0319712D3108433C0319712D63
:100AB0003108533C0319712D48300C1E5D2D9900EF
:100AC00020300C1E612D99002608B2001B30B300A7
:100AD0005E2C0D300C1E6A2D99000A300C1E6E2DF6
:100AE00099000130B300A220A708031D7A2DA808A1
:100AF00003197F2D27080319A803A703832D0330AB
:100B0000A800E830A700A6080319932D2708E83CA1
:100B1000031D8E2D2808033C0319A6038316051117
:100B200083120515972D8316051183120511DF2CED
:020B3000630060
:04400E00103FFC3F24
:00000001FF
;PIC16F88
;CRC=FA51  CREATED="22-VIII-10 10:31"
