:1000000001308A003B2900004D39E135EF36653972
:10001000A016A0266F3A6F392010D6127310A821AF
:1000200029103218301BA025C1254C050D005E306B
:1000300084008313000803192A280230F800F7010E
:10004000F70B2028F80B1F289730F700F70B26280E
:10005000800B1D2808009030D8008316860183127B
:10006000580886000130D9000230DC00FA30DE008A
:100070001720DC0B362808005D08DD03003A031961
:10008000552859080139013C031D4928C030D806BC
:100090004B283030D8068316860183125808860014
:1000A0001430DE001720D90A3C28080083160513F7
:1000B000831205130830F8005D280000F8176E2839
:1000C000F813E00C03180517031C051378176E28A6
:1000D0007813F80B61286C28000005170130F70031
:1000E0008401840B7128F70B70280E308400840B78
:1000F00077280000F81B6028781B68280800DC01BE
:10010000831605168312051A97280130DD003C205E
:10011000DC0A5C08283C031D96288316860183129E
:1001200086014530E00056208A01002880280230F0
:10013000DD00FA30DE001720DD0B992883168601DA
:100140008312860108000408F800831685178312BD
:10015000851BA8280830F700DC01F717BF28F71324
:10016000BF280310851B0314DC0C7717BF287713F7
:10017000F70BB128780884005C08F800D428013017
:1001800084000030F71B5530F800F80BC528840BAD
:10019000C1280D30F71B0330F800F80BCD28F71BF2
:1001A000AF28771BB728B1288A11FD2983160317BA
:1001B0008C170C14000000000318052983120C088A
:1001C0007F390313DD0003170D080313DE00031747
:1001D0000F080313DF005D08E00056205E080317D8
:1001E0008D0003135F0803178F0083168C170C1400
:1001F0000000000083120313DC0BFF280229831682
:100200000317052924298316031783120C0D0E0DDD
:100210007F390313DD0003170D080313DE000317F6
:100220000F080313DF005D08E00056205E08031787
:100230008D0003135F0803178F008D0A03198F0ABF
:1002400003100313DC0BD6280800800803193A2991
:10025000DD010408DC005D10831B5D140008E00074
:1002600056205C08840083135D188317840A0319E1
:10027000850A25290800840183131F308305723005
:1002800083168F000F0805138312051783161F129C
:100290009F121B0880399B0007309C008312A0012D
:1002A000A1013330A2002E30A3003030A400A501FC
:1002B0002430A6004930A7006430A8003A30A900D5
:1002C0002030AA006930AB007230AC006D30AD0058
:1002D0007230AE006130AF006B30B0002E30B10034
:1002E0006330B2002030B3003130B4003530B50097
:1002F0003930B6003030B7002030B8003230B900A5
:100300003030BA003130BB003030BC002D30BD0081
:100310003030BE003830BF002D30C0003230C10058
:10032000C2002030C3003130C4003530C5003A303F
:10033000C6003130C7003630C8003A30C90033300B
:10034000CA003630CB005A30CC002030CD006B30A4
:10035000CE006130CF006B30D0006C30D100203047
:10036000D2002430D300D40183161F129F121B0821
:1003700080399B0083121F10941283160611861475
:100380000612013083129400003083169400010895
:10039000C73908388100831290010030F8009200BC
:1003A00000308316920006148312970107308316DB
:1003B0009C00050885000630F700F70BDD290000DA
:1003C0001C0883120D1383169D0172308F000F08D5
:1003D00086018312860107308316860083122B2044
:1003E0007F2018121816851FFC2983160516831204
:1003F000051AFB297F20F329A3287808DA005A0878
:100400006D3C031D3B2A2B20D90A1230DD003C2015
:100410000230DC00C830DE001720DC0B0A2A413035
:10042000E00056203230DE0017200630DD003C2090
:100430000230DC00C830DE001720DC0B1A2A423004
:10044000E00056203230DE0017200630DD003C2070
:100450000230DC00C830DE001720DC0B2A2A4330D3
:10046000E00056203230DE001720D90A7F204730C6
:10047000E0005620F1295A08693C031D432A4930FF
:10048000E0005620F1295A08683C031D4B2A4830E9
:10049000E0005620F1295A08663C031D532A4630D5
:1004A000E0005620F1295A08783C031D792A0430CF
:1004B00003178D0000308F00031013300313DC008E
:1004C000D62022308400831325210E3003178D009F
:1004D00000308F00031410300313DC00D6202630C8
:1004E0008400831325210D30E00056200A30E000FF
:1004F00056205A082F3C0318832A5A08403C031CF4
:10050000832A3030DA025A080B3C031CF1292B20D5
:10051000D90A0C30DD003C20DB015A085B020318CD
:10052000962A0230DD003C20DB0A8D2A0230DC00F6
:10053000C830DE001720DC0B982A5330E00056202C
:100540003230DE001720D90A7F204730E0005620E5
:04055000F12963002A
:04400E00383FFC3FFC
:00000001FF
;PIC16F88
;CRC=A29E  CREATED="22-VIII-10 17:16"
