:1000000001308A003B2900004D39E135EF36653972
:10001000A016A0266F3A6F392010D6127310A821AF
:1000200029103218301BA025C1254C050D005E306B
:1000300084008313000803192A280230F800F7010E
:10004000F70B2028F80B1F289730F700F70B26280E
:10005000800B1D2808009030D8008316860183127B
:10006000580886000130D9000230DC00FA30DE008A
:100070001720DC0B362808005D08DD03003A031961
:10008000552859080139013C031D4928C030D806BC
:100090004B283030D8068316860183125808860014
:1000A0001430DE001720D90A3C28080083160513F7
:1000B000831205130830F8005D280000F8176E2839
:1000C000F813E00C03180517031C051378176E28A6
:1000D0007813F80B61286C28000005170130F70031
:1000E0008401840B7128F70B70280E308400840B78
:1000F00077280000F81B6028781B68280800DC01BE
:10010000831605168312051A97280130DD003C205E
:10011000DC0A5C08283C031D96288316860183129E
:1001200086014530E00056208A01002880280230F0
:10013000DD00FA30DE001720DD0B992883168601DA
:100140008312860108000408F800831685178312BD
:10015000851BA8280830F700DC01F717BF28F71324
:10016000BF280310851B0314DC0C7717BF287713F7
:10017000F70BB128780884005C08F800D428013017
:1001800084000030F71B5530F800F80BC528840BAD
:10019000C1280D30F71B0330F800F80BCD28F71BF2
:1001A000AF28771BB728B1288A11FA2983160317BD
:1001B0008C170C14000000000318052983120C088A
:1001C0007F390313DD0003170D080313DE00031747
:1001D0000F080313DF005D08E00056205E080317D8
:1001E0008D0003135F0803178F0083168C170C1400
:1001F0000000000083120313DC0BFF280229831682
:100200000317052924298316031783120C0D0E0DDD
:100210007F390313DD0003170D080313DE000317F6
:100220000F080313DF005D08E00056205E08031787
:100230008D0003135F0803178F008D0A03198F0ABF
:1002400003100313DC0BD6280800800803193A2991
:10025000DD010408DC005D10831B5D140008E00074
:1002600056205C08840083135D188317840A0319E1
:10027000850A25290800840183131F308305723005
:1002800083168F000F0805138312051783161F129C
:100290009F121B0880399B0007309C008312A0012D
:1002A000A1013330A2002E30A3003030A400A501FC
:1002B0002430A6004930A7006430A8003A30A900D5
:1002C0002030AA006930AB007230AC006D30AD0058
:1002D0007230AE006130AF006B30B0002E30B10034
:1002E0006330B2002030B3003430B4003230B50097
:1002F0003030B6002030B7003230B8003030B900AE
:10030000BA003630BB002D30BC003130BD00323079
:10031000BE002D30BF003230C0003930C100203067
:10032000C2003230C3003130C4003A30C50034302E
:10033000C6003330C7003A30C8003130C900CA00A7
:100340005A30CB002030CC006B30CD006130CE0075
:100350006B30CF006C30D0002030D1002430D20080
:10036000D30183161F129F121B0880399B00831232
:100370001F10941283160611861406120130831280
:1003800094000030831694000108C73908388100B2
:10039000831290010030F800920000308316920022
:1003A000061483129701073083169C000508850008
:1003B0000630F700F70BDA2900001C0883120D1332
:1003C00083169D0172308F000F088601831286010B
:1003D00007308316860083122B207F2018121816F0
:1003E000851FF929831605168312051AF8297F201F
:1003F000F029A3287808DA005A086D3C031D2F2A3B
:100400002B20D90A1230DD003C204130E00056207C
:100410000230DC009630DE001720DC0B0A2A0730A1
:10042000DD003C204230E00056200230DC009630F7
:10043000DE001720DC0B172A0730DD003C2043309C
:10044000E00056200230DC009630DE001720DC0B86
:10045000242AD90A7F204730E0005620EE295A0886
:10046000693C031D372A4930E0005620EE295A081E
:10047000683C031D3F2A4830E0005620EE295A0808
:10048000663C031D472A4630E0005620EE295A08F4
:10049000783C031D6D2A043003178D0000308F0057
:1004A000031013300313DC00D620223084008313A2
:1004B00025210E3003178D0000308F0003141030FB
:1004C0000313DC00D62026308400831325210D3051
:1004D000E00056200A30E00056205A082F3C03184E
:1004E000772A5A08403C031C772A3030DA025A082F
:1004F0000B3C031CEE292B20D90A0C30DD003C20DC
:10050000DB015A085B0203188A2A0230DD003C2016
:10051000DB0A812A5330E00056200230DC0096309E
:10052000DE001720DC0B8F2AD90A7F204730E0003D
:060530005620EE296300D5
:04400E00383FFC3FFC
:00000001FF
;PIC16F88
;CRC=2D65  CREATED="22-VIII-10 09:57"
